{"abi":[{"type":"constructor","inputs":[],"stateMutability":"nonpayable"},{"type":"function","name":"getGreeting","inputs":[],"outputs":[{"name":"","type":"string","internalType":"string"}],"stateMutability":"view"},{"type":"function","name":"setGreeting","inputs":[{"name":"newGreeting","type":"string","internalType":"string"}],"outputs":[],"stateMutability":"nonpayable"},{"type":"event","name":"GreetingChanged","inputs":[{"name":"newGreeting","type":"string","indexed":false,"internalType":"string"}],"anonymous":false}],"bytecode":{"object":"0x608060405234801561000f575f5ffd5b506040518060400160405280601081526020017f48656c6c6f2041726368697465637421000000000000000000000000000000008152505f908161005391906102a7565b50610376565b5f81519050919050565b7f4e487b71000000000000000000000000000000000000000000000000000000005f52604160045260245ffd5b7f4e487b71000000000000000000000000000000000000000000000000000000005f52602260045260245ffd5b5f60028204905060018216806100d457607f821691505b6020821081036100e7576100e6610090565b5b50919050565b5f819050815f5260205f209050919050565b5f6020601f8301049050919050565b5f82821b905092915050565b5f600883026101497fffffffffffffffffffffffffffffffffffffffffffffffffffffffffffffffff8261010e565b610153868361010e565b95508019841693508086168417925050509392505050565b5f819050919050565b5f819050919050565b5f61019761019261018d8461016b565b610174565b61016b565b9050919050565b5f819050919050565b6101b08361017d565b6101c46101bc8261019e565b84845461011a565b825550505050565b5f5f905090565b6101db6101cc565b6101e68184846101a7565b505050565b5f5b8281101561020c576102015f8284016101d3565b6001810190506101ed565b505050565b601f82111561025f578282111561025e5761022b816100ed565b610234836100ff565b61023d856100ff565b602086101561024a575f90505b808301610259828403826101eb565b505050505b5b505050565b5f82821c905092915050565b5f61027f5f1984600802610264565b1980831691505092915050565b5f6102978383610270565b9150826002028217905092915050565b6102b082610059565b67ffffffffffffffff8111156102c9576102c8610063565b5b6102d382546100bd565b6102de828285610211565b5f60209050601f83116001811461030f575f84156102fd578287015190505b610307858261028c565b86555061036e565b601f19841661031d866100ed565b5f5b828110156103445784890151825560018201915060208501945060208101905061031f565b86831015610361578489015161035d601f891682610270565b8355505b6001600288020188555050505b505050505050565b61067a806103835f395ff3fe608060405234801561000f575f5ffd5b5060043610610034575f3560e01c8063a413686214610038578063fe50cc7214610054575b5f5ffd5b610052600480360381019061004d9190610297565b610072565b005b61005c6100bb565b604051610069919061033e565b60405180910390f35b805f90816100809190610575565b507f58c1144814f1df01a80f7347f945437a37cd818e027f87b0ade6db623ec41b57816040516100b0919061033e565b60405180910390a150565b60605f80546100c99061038b565b80601f01602080910402602001604051908101604052809291908181526020018280546100f59061038b565b80156101405780601f1061011757610100808354040283529160200191610140565b820191905f5260205f20905b81548152906001019060200180831161012357829003601f168201915b5050505050905090565b5f604051905090565b5f5ffd5b5f5ffd5b5f5ffd5b5f5ffd5b5f601f19601f8301169050919050565b7f4e487b71000000000000000000000000000000000000000000000000000000005f52604160045260245ffd5b6101a982610163565b810181811067ffffffffffffffff821117156101c8576101c7610173565b5b80604052505050565b5f6101da61014a565b90506101e682826101a0565b919050565b5f67ffffffffffffffff82111561020557610204610173565b5b61020e82610163565b9050602081019050919050565b828183375f83830152505050565b5f61023b610236846101eb565b6101d1565b9050828152602081018484840111156102575761025661015f565b5b61026284828561021b565b509392505050565b5f82601f83011261027e5761027d61015b565b5b813561028e848260208601610229565b91505092915050565b5f602082840312156102ac576102ab610153565b5b5f82013567ffffffffffffffff8111156102c9576102c8610157565b5b6102d58482850161026a565b91505092915050565b5f81519050919050565b5f82825260208201905092915050565b8281835e5f83830152505050565b5f610310826102de565b61031a81856102e8565b935061032a8185602086016102f8565b61033381610163565b840191505092915050565b5f6020820190508181035f8301526103568184610306565b905092915050565b7f4e487b71000000000000000000000000000000000000000000000000000000005f52602260045260245ffd5b5f60028204905060018216806103a257607f821691505b6020821081036103b5576103b461035e565b5b50919050565b5f819050815f5260205f209050919050565b5f6020601f8301049050919050565b5f82821b905092915050565b5f600883026104177fffffffffffffffffffffffffffffffffffffffffffffffffffffffffffffffff826103dc565b61042186836103dc565b95508019841693508086168417925050509392505050565b5f819050919050565b5f819050919050565b5f61046561046061045b84610439565b610442565b610439565b9050919050565b5f819050919050565b61047e8361044b565b61049261048a8261046c565b8484546103e8565b825550505050565b5f5f905090565b6104a961049a565b6104b4818484610475565b505050565b5f5b828110156104da576104cf5f8284016104a1565b6001810190506104bb565b505050565b601f82111561052d578282111561052c576104f9816103bb565b610502836103cd565b61050b856103cd565b6020861015610518575f90505b808301610527828403826104b9565b505050505b5b505050565b5f82821c905092915050565b5f61054d5f1984600802610532565b1980831691505092915050565b5f610565838361053e565b9150826002028217905092915050565b61057e826102de565b67ffffffffffffffff81111561059757610596610173565b5b6105a1825461038b565b6105ac8282856104df565b5f60209050601f8311600181146105dd575f84156105cb578287015190505b6105d5858261055a565b86555061063c565b601f1984166105eb866103bb565b5f5b82811015610612578489015182556001820191506020850194506020810190506105ed565b8683101561062f578489015161062b601f89168261053e565b8355505b6001600288020188555050505b50505050505056fea2646970667358221220779627493e409588ad5ccd6b73d0ae6b1aca504fc0b7909aa14931d34292753f64736f6c63430008210033","linkReferences":{}},"methodIdentifiers":{"getGreeting()":"fe50cc72","setGreeting(string)":"a4136862"},"id":19}